{
  "address": "0x5FbDB2315678afecb367f032d93F642f64180aa3",
  "_format": "hh-sol-artifact-1",
  "contractName": "Voting",
  "sourceName": "contracts/Voting.sol",
  "abi": [
    {
      "inputs": [],
      "stateMutability": "nonpayable",
      "type": "constructor"
    },
    {
      "anonymous": false,
      "inputs": [
        {
          "indexed": true,
          "internalType": "uint256",
          "name": "electionId",
          "type": "uint256"
        },
        {
          "indexed": true,
          "internalType": "uint256",
          "name": "candidateId",
          "type": "uint256"
        },
        {
          "indexed": false,
          "internalType": "string",
          "name": "name",
          "type": "string"
        }
      ],
      "name": "CandidateAdded",
      "type": "event"
    },
    {
      "anonymous": false,
      "inputs": [
        {
          "indexed": true,
          "internalType": "uint256",
          "name": "electionId",
          "type": "uint256"
        },
        {
          "indexed": false,
          "internalType": "string",
          "name": "title",
          "type": "string"
        }
      ],
      "name": "ElectionCreated",
      "type": "event"
    },
    {
      "anonymous": false,
      "inputs": [
        {
          "indexed": true,
          "internalType": "uint256",
          "name": "electionId",
          "type": "uint256"
        }
      ],
      "name": "ElectionEnded",
      "type": "event"
    },
    {
      "anonymous": false,
      "inputs": [
        {
          "indexed": true,
          "internalType": "uint256",
          "name": "electionId",
          "type": "uint256"
        }
      ],
      "name": "ElectionStarted",
      "type": "event"
    },
    {
      "anonymous": false,
      "inputs": [
        {
          "indexed": true,
          "internalType": "uint256",
          "name": "electionId",
          "type": "uint256"
        },
        {
          "indexed": true,
          "internalType": "uint256",
          "name": "candidateId",
          "type": "uint256"
        },
        {
          "indexed": true,
          "internalType": "address",
          "name": "voter",
          "type": "address"
        }
      ],
      "name": "VoteCast",
      "type": "event"
    },
    {
      "inputs": [
        {
          "internalType": "uint256",
          "name": "_electionId",
          "type": "uint256"
        },
        {
          "internalType": "string",
          "name": "_name",
          "type": "string"
        },
        {
          "internalType": "string",
          "name": "_description",
          "type": "string"
        }
      ],
      "name": "addCandidate",
      "outputs": [
        {
          "internalType": "uint256",
          "name": "",
          "type": "uint256"
        }
      ],
      "stateMutability": "nonpayable",
      "type": "function"
    },
    {
      "inputs": [
        {
          "internalType": "uint256",
          "name": "",
          "type": "uint256"
        },
        {
          "internalType": "uint256",
          "name": "",
          "type": "uint256"
        }
      ],
      "name": "candidates",
      "outputs": [
        {
          "internalType": "uint256",
          "name": "id",
          "type": "uint256"
        },
        {
          "internalType": "string",
          "name": "name",
          "type": "string"
        },
        {
          "internalType": "string",
          "name": "description",
          "type": "string"
        },
        {
          "internalType": "uint256",
          "name": "voteCount",
          "type": "uint256"
        },
        {
          "internalType": "bool",
          "name": "exists",
          "type": "bool"
        }
      ],
      "stateMutability": "view",
      "type": "function"
    },
    {
      "inputs": [
        {
          "internalType": "uint256",
          "name": "_electionId",
          "type": "uint256"
        },
        {
          "internalType": "address",
          "name": "_voter",
          "type": "address"
        }
      ],
      "name": "checkVoted",
      "outputs": [
        {
          "internalType": "bool",
          "name": "",
          "type": "bool"
        }
      ],
      "stateMutability": "view",
      "type": "function"
    },
    {
      "inputs": [
        {
          "internalType": "string",
          "name": "_title",
          "type": "string"
        },
        {
          "internalType": "string",
          "name": "_description",
          "type": "string"
        }
      ],
      "name": "createElection",
      "outputs": [
        {
          "internalType": "uint256",
          "name": "",
          "type": "uint256"
        }
      ],
      "stateMutability": "nonpayable",
      "type": "function"
    },
    {
      "inputs": [
        {
          "internalType": "uint256",
          "name": "",
          "type": "uint256"
        },
        {
          "internalType": "uint256",
          "name": "",
          "type": "uint256"
        }
      ],
      "name": "electionCandidateIds",
      "outputs": [
        {
          "internalType": "uint256",
          "name": "",
          "type": "uint256"
        }
      ],
      "stateMutability": "view",
      "type": "function"
    },
    {
      "inputs": [],
      "name": "electionCount",
      "outputs": [
        {
          "internalType": "uint256",
          "name": "",
          "type": "uint256"
        }
      ],
      "stateMutability": "view",
      "type": "function"
    },
    {
      "inputs": [
        {
          "internalType": "uint256",
          "name": "",
          "type": "uint256"
        }
      ],
      "name": "elections",
      "outputs": [
        {
          "internalType": "uint256",
          "name": "id",
          "type": "uint256"
        },
        {
          "internalType": "string",
          "name": "title",
          "type": "string"
        },
        {
          "internalType": "string",
          "name": "description",
          "type": "string"
        },
        {
          "internalType": "bool",
          "name": "active",
          "type": "bool"
        },
        {
          "internalType": "bool",
          "name": "exists",
          "type": "bool"
        },
        {
          "internalType": "uint256",
          "name": "startTime",
          "type": "uint256"
        },
        {
          "internalType": "uint256",
          "name": "endTime",
          "type": "uint256"
        },
        {
          "internalType": "uint256",
          "name": "candidateCount",
          "type": "uint256"
        }
      ],
      "stateMutability": "view",
      "type": "function"
    },
    {
      "inputs": [
        {
          "internalType": "uint256",
          "name": "_electionId",
          "type": "uint256"
        }
      ],
      "name": "endElection",
      "outputs": [],
      "stateMutability": "nonpayable",
      "type": "function"
    },
    {
      "inputs": [
        {
          "internalType": "uint256",
          "name": "_electionId",
          "type": "uint256"
        },
        {
          "internalType": "uint256",
          "name": "_candidateId",
          "type": "uint256"
        }
      ],
      "name": "getCandidate",
      "outputs": [
        {
          "internalType": "uint256",
          "name": "",
          "type": "uint256"
        },
        {
          "internalType": "string",
          "name": "",
          "type": "string"
        },
        {
          "internalType": "string",
          "name": "",
          "type": "string"
        },
        {
          "internalType": "uint256",
          "name": "",
          "type": "uint256"
        }
      ],
      "stateMutability": "view",
      "type": "function"
    },
    {
      "inputs": [
        {
          "internalType": "uint256",
          "name": "_electionId",
          "type": "uint256"
        }
      ],
      "name": "getElection",
      "outputs": [
        {
          "internalType": "uint256",
          "name": "",
          "type": "uint256"
        },
        {
          "internalType": "string",
          "name": "",
          "type": "string"
        },
        {
          "internalType": "string",
          "name": "",
          "type": "string"
        },
        {
          "internalType": "bool",
          "name": "",
          "type": "bool"
        },
        {
          "internalType": "uint256",
          "name": "",
          "type": "uint256"
        },
        {
          "internalType": "uint256",
          "name": "",
          "type": "uint256"
        },
        {
          "internalType": "uint256",
          "name": "",
          "type": "uint256"
        }
      ],
      "stateMutability": "view",
      "type": "function"
    },
    {
      "inputs": [
        {
          "internalType": "uint256",
          "name": "_electionId",
          "type": "uint256"
        }
      ],
      "name": "getElectionCandidates",
      "outputs": [
        {
          "internalType": "uint256[]",
          "name": "",
          "type": "uint256[]"
        }
      ],
      "stateMutability": "view",
      "type": "function"
    },
    {
      "inputs": [
        {
          "internalType": "uint256",
          "name": "_electionId",
          "type": "uint256"
        }
      ],
      "name": "getResults",
      "outputs": [
        {
          "internalType": "uint256[]",
          "name": "ids",
          "type": "uint256[]"
        },
        {
          "internalType": "string[]",
          "name": "names",
          "type": "string[]"
        },
        {
          "internalType": "uint256[]",
          "name": "voteCounts",
          "type": "uint256[]"
        }
      ],
      "stateMutability": "view",
      "type": "function"
    },
    {
      "inputs": [
        {
          "internalType": "uint256",
          "name": "",
          "type": "uint256"
        },
        {
          "internalType": "address",
          "name": "",
          "type": "address"
        }
      ],
      "name": "hasVoted",
      "outputs": [
        {
          "internalType": "bool",
          "name": "",
          "type": "bool"
        }
      ],
      "stateMutability": "view",
      "type": "function"
    },
    {
      "inputs": [],
      "name": "owner",
      "outputs": [
        {
          "internalType": "address",
          "name": "",
          "type": "address"
        }
      ],
      "stateMutability": "view",
      "type": "function"
    },
    {
      "inputs": [
        {
          "internalType": "uint256",
          "name": "_electionId",
          "type": "uint256"
        }
      ],
      "name": "startElection",
      "outputs": [],
      "stateMutability": "nonpayable",
      "type": "function"
    },
    {
      "inputs": [
        {
          "internalType": "uint256",
          "name": "_electionId",
          "type": "uint256"
        },
        {
          "internalType": "uint256",
          "name": "_candidateId",
          "type": "uint256"
        }
      ],
      "name": "vote",
      "outputs": [],
      "stateMutability": "nonpayable",
      "type": "function"
    }
  ],
  "bytecode": "0x608060405234801561001057600080fd5b50336000806101000a81548173ffffffffffffffffffffffffffffffffffffffff021916908373ffffffffffffffffffffffffffffffffffffffff160217905550612c53806100606000396000f3fe608060405234801561001057600080fd5b50600436106101005760003560e01c80638da5cb5b116100975780639d710777116100665780639d71077714610309578063b384abef1461033f578063bd27eca01461035b578063e6c62efc1461038b57610100565b80638da5cb5b14610281578063984de1e91461029f578063997d2830146102cf5780639c98bcbb146102ed57610100565b80635e6fef01116100d35780635e6fef01146101c85780636d32dc4b146101ff5780637de142421461021b57806381a60c0d1461024f57610100565b80634117f1bb1461010557806343859632146101355780634bd46448146101655780635e12845e14610198575b600080fd5b61011f600480360381019061011a9190611c0d565b6103bb565b60405161012c9190611c5c565b60405180910390f35b61014f600480360381019061014a9190611cd5565b6103ec565b60405161015c9190611d30565b60405180910390f35b61017f600480360381019061017a9190611c0d565b61041b565b60405161018f9493929190611ddb565b60405180910390f35b6101b260048036038101906101ad9190611e2e565b610611565b6040516101bf9190611f19565b60405180910390f35b6101e260048036038101906101dd9190611e2e565b6106e1565b6040516101f6989796959493929190611f3b565b60405180910390f35b61021960048036038101906102149190611e2e565b610853565b005b61023560048036038101906102309190611c0d565b610a7d565b604051610246959493929190611fc7565b60405180910390f35b61026960048036038101906102649190611e2e565b610bdd565b60405161027893929190612134565b60405180910390f35b610289610f96565b604051610296919061218f565b60405180910390f35b6102b960048036038101906102b49190611cd5565b610fba565b6040516102c69190611d30565b60405180910390f35b6102d7611022565b6040516102e49190611c5c565b60405180910390f35b61030760048036038101906103029190611e2e565b611028565b005b610323600480360381019061031e9190611e2e565b6111f8565b60405161033697969594939291906121aa565b60405180910390f35b61035960048036038101906103549190611c0d565b61144a565b005b6103756004803603810190610370919061235c565b611713565b6040516103829190611c5c565b60405180910390f35b6103a560048036038101906103a091906123d4565b6118f2565b6040516103b29190611c5c565b60405180910390f35b600560205281600052604060002081815481106103d757600080fd5b90600052602060002001600091509150505481565b60046020528160005260406000206020528060005260406000206000915091509054906101000a900460ff1681565b60006060806000806003600088815260200190815260200160002060008781526020019081526020016000206040518060a00160405290816000820154815260200160018201805461046c9061248e565b80601f01602080910402602001604051908101604052809291908181526020018280546104989061248e565b80156104e55780601f106104ba576101008083540402835291602001916104e5565b820191906000526020600020905b8154815290600101906020018083116104c857829003601f168201915b505050505081526020016002820180546104fe9061248e565b80601f016020809104026020016040519081016040528092919081815260200182805461052a9061248e565b80156105775780601f1061054c57610100808354040283529160200191610577565b820191906000526020600020905b81548152906001019060200180831161055a57829003601f168201915b50505050508152602001600382015481526020016004820160009054906101000a900460ff161515151581525050905080608001516105eb576040517f08c379a00000000000000000000000000000000000000000000000000000000081526004016105e29061250b565b60405180910390fd5b806000015181602001518260400151836060015194509450945094505092959194509250565b6060816002600082815260200190815260200160002060030160019054906101000a900460ff16610677576040517f08c379a000000000000000000000000000000000000000000000000000000000815260040161066e90612577565b60405180910390fd5b600560008481526020019081526020016000208054806020026020016040519081016040528092919081815260200182805480156106d457602002820191906000526020600020905b8154815260200190600101908083116106c0575b5050505050915050919050565b600260205280600052604060002060009150905080600001549080600101805461070a9061248e565b80601f01602080910402602001604051908101604052809291908181526020018280546107369061248e565b80156107835780601f1061075857610100808354040283529160200191610783565b820191906000526020600020905b81548152906001019060200180831161076657829003601f168201915b5050505050908060020180546107989061248e565b80601f01602080910402602001604051908101604052809291908181526020018280546107c49061248e565b80156108115780601f106107e657610100808354040283529160200191610811565b820191906000526020600020905b8154815290600101906020018083116107f457829003601f168201915b5050505050908060030160009054906101000a900460ff16908060030160019054906101000a900460ff16908060040154908060050154908060060154905088565b60008054906101000a900473ffffffffffffffffffffffffffffffffffffffff1673ffffffffffffffffffffffffffffffffffffffff163373ffffffffffffffffffffffffffffffffffffffff16146108e1576040517f08c379a00000000000000000000000000000000000000000000000000000000081526004016108d890612609565b60405180910390fd5b806002600082815260200190815260200160002060030160019054906101000a900460ff16610945576040517f08c379a000000000000000000000000000000000000000000000000000000000815260040161093c90612577565b60405180910390fd5b6002600083815260200190815260200160002060030160009054906101000a900460ff16156109a9576040517f08c379a00000000000000000000000000000000000000000000000000000000081526004016109a090612675565b60405180910390fd5b6000600260008481526020019081526020016000206006015411610a02576040517f08c379a00000000000000000000000000000000000000000000000000000000081526004016109f9906126e1565b60405180910390fd5b60016002600084815260200190815260200160002060030160006101000a81548160ff021916908315150217905550426002600084815260200190815260200160002060040181905550817f159eee87222a0489c529f2153c26ad65d718f2cc33ebaa8d399d1dd5b39facaa60405160405180910390a25050565b600360205281600052604060002060205280600052604060002060009150915050806000015490806001018054610ab39061248e565b80601f0160208091040260200160405190810160405280929190818152602001828054610adf9061248e565b8015610b2c5780601f10610b0157610100808354040283529160200191610b2c565b820191906000526020600020905b815481529060010190602001808311610b0f57829003601f168201915b505050505090806002018054610b419061248e565b80601f0160208091040260200160405190810160405280929190818152602001828054610b6d9061248e565b8015610bba5780601f10610b8f57610100808354040283529160200191610bba565b820191906000526020600020905b815481529060010190602001808311610b9d57829003601f168201915b5050505050908060030154908060040160009054906101000a900460ff16905085565b6060806060836002600082815260200190815260200160002060030160019054906101000a900460ff16610c46576040517f08c379a0000000000000000000000000000000000000000000000000000000008152600401610c3d90612577565b60405180910390fd5b6000600260008781526020019081526020016000206006015490508067ffffffffffffffff811115610c7b57610c7a612231565b5b604051908082528060200260200182016040528015610ca95781602001602082028036833780820191505090505b5094508067ffffffffffffffff811115610cc657610cc5612231565b5b604051908082528060200260200182016040528015610cf957816020015b6060815260200190600190039081610ce45790505b5093508067ffffffffffffffff811115610d1657610d15612231565b5b604051908082528060200260200182016040528015610d445781602001602082028036833780820191505090505b50925060005b81811015610f8c576000600560008981526020019081526020016000208281548110610d7957610d78612701565b5b906000526020600020015490506000600360008a815260200190815260200160002060008381526020019081526020016000206040518060a001604052908160008201548152602001600182018054610dd19061248e565b80601f0160208091040260200160405190810160405280929190818152602001828054610dfd9061248e565b8015610e4a5780601f10610e1f57610100808354040283529160200191610e4a565b820191906000526020600020905b815481529060010190602001808311610e2d57829003601f168201915b50505050508152602001600282018054610e639061248e565b80601f0160208091040260200160405190810160405280929190818152602001828054610e8f9061248e565b8015610edc5780601f10610eb157610100808354040283529160200191610edc565b820191906000526020600020905b815481529060010190602001808311610ebf57829003601f168201915b50505050508152602001600382015481526020016004820160009054906101000a900460ff16151515158152505090508060000151888481518110610f2457610f23612701565b5b6020026020010181815250508060200151878481518110610f4857610f47612701565b5b60200260200101819052508060600151868481518110610f6b57610f6a612701565b5b60200260200101818152505050508080610f849061275f565b915050610d4a565b5050509193909250565b60008054906101000a900473ffffffffffffffffffffffffffffffffffffffff1681565b60006004600084815260200190815260200160002060008373ffffffffffffffffffffffffffffffffffffffff1673ffffffffffffffffffffffffffffffffffffffff16815260200190815260200160002060009054906101000a900460ff16905092915050565b60015481565b60008054906101000a900473ffffffffffffffffffffffffffffffffffffffff1673ffffffffffffffffffffffffffffffffffffffff163373ffffffffffffffffffffffffffffffffffffffff16146110b6576040517f08c379a00000000000000000000000000000000000000000000000000000000081526004016110ad90612609565b60405180910390fd5b806002600082815260200190815260200160002060030160019054906101000a900460ff1661111a576040517f08c379a000000000000000000000000000000000000000000000000000000000815260040161111190612577565b60405180910390fd5b6002600083815260200190815260200160002060030160009054906101000a900460ff1661117d576040517f08c379a0000000000000000000000000000000000000000000000000000000008152600401611174906127f3565b60405180910390fd5b60006002600084815260200190815260200160002060030160006101000a81548160ff021916908315150217905550426002600084815260200190815260200160002060050181905550817f562cd572b2ba3b666cd989fc4ca98419ec81e75f04528df9d9d76fdb7807ee7160405160405180910390a25050565b6000606080600080600080876002600082815260200190815260200160002060030160019054906101000a900460ff16611267576040517f08c379a000000000000000000000000000000000000000000000000000000000815260040161125e90612577565b60405180910390fd5b6000600260008b815260200190815260200160002060405180610100016040529081600082015481526020016001820180546112a29061248e565b80601f01602080910402602001604051908101604052809291908181526020018280546112ce9061248e565b801561131b5780601f106112f05761010080835404028352916020019161131b565b820191906000526020600020905b8154815290600101906020018083116112fe57829003601f168201915b505050505081526020016002820180546113349061248e565b80601f01602080910402602001604051908101604052809291908181526020018280546113609061248e565b80156113ad5780601f10611382576101008083540402835291602001916113ad565b820191906000526020600020905b81548152906001019060200180831161139057829003601f168201915b505050505081526020016003820160009054906101000a900460ff161515151581526020016003820160019054906101000a900460ff161515151581526020016004820154815260200160058201548152602001600682015481525050905080600001518160200151826040015183606001518460a001518560c001518660e0015198509850985098509850985098505050919395979092949650565b816002600082815260200190815260200160002060030160019054906101000a900460ff166114ae576040517f08c379a00000000000000000000000000000000000000000000000000000000081526004016114a590612577565b60405180910390fd5b6002600084815260200190815260200160002060030160009054906101000a900460ff16611511576040517f08c379a00000000000000000000000000000000000000000000000000000000081526004016115089061285f565b60405180910390fd5b6004600084815260200190815260200160002060003373ffffffffffffffffffffffffffffffffffffffff1673ffffffffffffffffffffffffffffffffffffffff16815260200190815260200160002060009054906101000a900460ff16156115af576040517f08c379a00000000000000000000000000000000000000000000000000000000081526004016115a6906128cb565b60405180910390fd5b60036000848152602001908152602001600020600083815260200190815260200160002060040160009054906101000a900460ff16611623576040517f08c379a000000000000000000000000000000000000000000000000000000000815260040161161a9061250b565b60405180910390fd5b60016004600085815260200190815260200160002060003373ffffffffffffffffffffffffffffffffffffffff1673ffffffffffffffffffffffffffffffffffffffff16815260200190815260200160002060006101000a81548160ff02191690831515021790555060036000848152602001908152602001600020600083815260200190815260200160002060030160008154809291906116c49061275f565b91905055503373ffffffffffffffffffffffffffffffffffffffff1682847f7fe1d4e6b34e228b5dc059fcdc037c71b216fb2417f47c171e505144a5e4f5fc60405160405180910390a4505050565b60008060009054906101000a900473ffffffffffffffffffffffffffffffffffffffff1673ffffffffffffffffffffffffffffffffffffffff163373ffffffffffffffffffffffffffffffffffffffff16146117a4576040517f08c379a000000000000000000000000000000000000000000000000000000000815260040161179b90612609565b60405180910390fd5b600160008154809291906117b79061275f565b91905055506040518061010001604052806001548152602001848152602001838152602001600015158152602001600115158152602001600081526020016000815260200160008152506002600060015481526020019081526020016000206000820151816000015560208201518160010190816118359190612a97565b50604082015181600201908161184b9190612a97565b5060608201518160030160006101000a81548160ff02191690831515021790555060808201518160030160016101000a81548160ff02191690831515021790555060a0820151816004015560c0820151816005015560e082015181600601559050506001547f52be7c4e77b4de76b7607d621492061fe13b58597e72dfb5e51ab8f6187ed141846040516118df9190612b69565b60405180910390a2600154905092915050565b60008060009054906101000a900473ffffffffffffffffffffffffffffffffffffffff1673ffffffffffffffffffffffffffffffffffffffff163373ffffffffffffffffffffffffffffffffffffffff1614611983576040517f08c379a000000000000000000000000000000000000000000000000000000000815260040161197a90612609565b60405180910390fd5b836002600082815260200190815260200160002060030160019054906101000a900460ff166119e7576040517f08c379a00000000000000000000000000000000000000000000000000000000081526004016119de90612577565b60405180910390fd5b6002600086815260200190815260200160002060030160009054906101000a900460ff1615611a4b576040517f08c379a0000000000000000000000000000000000000000000000000000000008152600401611a4290612bfd565b60405180910390fd5b600260008681526020019081526020016000206006016000815480929190611a729061275f565b91905055506000600260008781526020019081526020016000206006015490506040518060a001604052808281526020018681526020018581526020016000815260200160011515815250600360008881526020019081526020016000206000838152602001908152602001600020600082015181600001556020820151816001019081611b009190612a97565b506040820151816002019081611b169190612a97565b506060820151816003015560808201518160040160006101000a81548160ff0219169083151502179055509050506005600087815260200190815260200160002081908060018154018082558091505060019003906000526020600020016000909190919091505580867fed8911b3df733b7d5f75724158e54478ea12e30f49c9d31b5261879f5b76586f87604051611baf9190612b69565b60405180910390a380925050509392505050565b6000604051905090565b600080fd5b600080fd5b6000819050919050565b611bea81611bd7565b8114611bf557600080fd5b50565b600081359050611c0781611be1565b92915050565b60008060408385031215611c2457611c23611bcd565b5b6000611c3285828601611bf8565b9250506020611c4385828601611bf8565b9150509250929050565b611c5681611bd7565b82525050565b6000602082019050611c716000830184611c4d565b92915050565b600073ffffffffffffffffffffffffffffffffffffffff82169050919050565b6000611ca282611c77565b9050919050565b611cb281611c97565b8114611cbd57600080fd5b50565b600081359050611ccf81611ca9565b92915050565b60008060408385031215611cec57611ceb611bcd565b5b6000611cfa85828601611bf8565b9250506020611d0b85828601611cc0565b9150509250929050565b60008115159050919050565b611d2a81611d15565b82525050565b6000602082019050611d456000830184611d21565b92915050565b600081519050919050565b600082825260208201905092915050565b60005b83811015611d85578082015181840152602081019050611d6a565b60008484015250505050565b6000601f19601f8301169050919050565b6000611dad82611d4b565b611db78185611d56565b9350611dc7818560208601611d67565b611dd081611d91565b840191505092915050565b6000608082019050611df06000830187611c4d565b8181036020830152611e028186611da2565b90508181036040830152611e168185611da2565b9050611e256060830184611c4d565b95945050505050565b600060208284031215611e4457611e43611bcd565b5b6000611e5284828501611bf8565b91505092915050565b600081519050919050565b600082825260208201905092915050565b6000819050602082019050919050565b611e9081611bd7565b82525050565b6000611ea28383611e87565b60208301905092915050565b6000602082019050919050565b6000611ec682611e5b565b611ed08185611e66565b9350611edb83611e77565b8060005b83811015611f0c578151611ef38882611e96565b9750611efe83611eae565b925050600181019050611edf565b5085935050505092915050565b60006020820190508181036000830152611f338184611ebb565b905092915050565b600061010082019050611f51600083018b611c4d565b8181036020830152611f63818a611da2565b90508181036040830152611f778189611da2565b9050611f866060830188611d21565b611f936080830187611d21565b611fa060a0830186611c4d565b611fad60c0830185611c4d565b611fba60e0830184611c4d565b9998505050505050505050565b600060a082019050611fdc6000830188611c4d565b8181036020830152611fee8187611da2565b905081810360408301526120028186611da2565b90506120116060830185611c4d565b61201e6080830184611d21565b9695505050505050565b600081519050919050565b600082825260208201905092915050565b6000819050602082019050919050565b600082825260208201905092915050565b600061207082611d4b565b61207a8185612054565b935061208a818560208601611d67565b61209381611d91565b840191505092915050565b60006120aa8383612065565b905092915050565b6000602082019050919050565b60006120ca82612028565b6120d48185612033565b9350836020820285016120e685612044565b8060005b858110156121225784840389528151612103858261209e565b945061210e836120b2565b925060208a019950506001810190506120ea565b50829750879550505050505092915050565b6000606082019050818103600083015261214e8186611ebb565b9050818103602083015261216281856120bf565b905081810360408301526121768184611ebb565b9050949350505050565b61218981611c97565b82525050565b60006020820190506121a46000830184612180565b92915050565b600060e0820190506121bf600083018a611c4d565b81810360208301526121d18189611da2565b905081810360408301526121e58188611da2565b90506121f46060830187611d21565b6122016080830186611c4d565b61220e60a0830185611c4d565b61221b60c0830184611c4d565b98975050505050505050565b600080fd5b600080fd5b7f4e487b7100000000000000000000000000000000000000000000000000000000600052604160045260246000fd5b61226982611d91565b810181811067ffffffffffffffff8211171561228857612287612231565b5b80604052505050565b600061229b611bc3565b90506122a78282612260565b919050565b600067ffffffffffffffff8211156122c7576122c6612231565b5b6122d082611d91565b9050602081019050919050565b82818337600083830152505050565b60006122ff6122fa846122ac565b612291565b90508281526020810184848401111561231b5761231a61222c565b5b6123268482856122dd565b509392505050565b600082601f83011261234357612342612227565b5b81356123538482602086016122ec565b91505092915050565b6000806040838503121561237357612372611bcd565b5b600083013567ffffffffffffffff81111561239157612390611bd2565b5b61239d8582860161232e565b925050602083013567ffffffffffffffff8111156123be576123bd611bd2565b5b6123ca8582860161232e565b9150509250929050565b6000806000606084860312156123ed576123ec611bcd565b5b60006123fb86828701611bf8565b935050602084013567ffffffffffffffff81111561241c5761241b611bd2565b5b6124288682870161232e565b925050604084013567ffffffffffffffff81111561244957612448611bd2565b5b6124558682870161232e565b9150509250925092565b7f4e487b7100000000000000000000000000000000000000000000000000000000600052602260045260246000fd5b600060028204905060018216806124a657607f821691505b6020821081036124b9576124b861245f565b5b50919050565b7f43616e64696461746520646f6573206e6f742065786973740000000000000000600082015250565b60006124f5601883611d56565b9150612500826124bf565b602082019050919050565b60006020820190508181036000830152612524816124e8565b9050919050565b7f456c656374696f6e20646f6573206e6f74206578697374000000000000000000600082015250565b6000612561601783611d56565b915061256c8261252b565b602082019050919050565b6000602082019050818103600083015261259081612554565b9050919050565b7f4f6e6c79206f776e65722063616e2063616c6c20746869732066756e6374696f60008201527f6e00000000000000000000000000000000000000000000000000000000000000602082015250565b60006125f3602183611d56565b91506125fe82612597565b604082019050919050565b60006020820190508181036000830152612622816125e6565b9050919050565b7f456c656374696f6e20616c726561647920616374697665000000000000000000600082015250565b600061265f601783611d56565b915061266a82612629565b602082019050919050565b6000602082019050818103600083015261268e81612652565b9050919050565b7f4e6f2063616e6469646174657320616464656400000000000000000000000000600082015250565b60006126cb601383611d56565b91506126d682612695565b602082019050919050565b600060208201905081810360008301526126fa816126be565b9050919050565b7f4e487b7100000000000000000000000000000000000000000000000000000000600052603260045260246000fd5b7f4e487b7100000000000000000000000000000000000000000000000000000000600052601160045260246000fd5b600061276a82611bd7565b91507fffffffffffffffffffffffffffffffffffffffffffffffffffffffffffffffff820361279c5761279b612730565b5b600182019050919050565b7f456c656374696f6e206e6f742061637469766500000000000000000000000000600082015250565b60006127dd601383611d56565b91506127e8826127a7565b602082019050919050565b6000602082019050818103600083015261280c816127d0565b9050919050565b7f456c656374696f6e206973206e6f742061637469766500000000000000000000600082015250565b6000612849601683611d56565b915061285482612813565b602082019050919050565b600060208201905081810360008301526128788161283c565b9050919050565b7f416c726561647920766f74656420696e207468697320656c656374696f6e0000600082015250565b60006128b5601e83611d56565b91506128c08261287f565b602082019050919050565b600060208201905081810360008301526128e4816128a8565b9050919050565b60008190508160005260206000209050919050565b60006020601f8301049050919050565b600082821b905092915050565b60006008830261294d7fffffffffffffffffffffffffffffffffffffffffffffffffffffffffffffffff82612910565b6129578683612910565b95508019841693508086168417925050509392505050565b6000819050919050565b600061299461298f61298a84611bd7565b61296f565b611bd7565b9050919050565b6000819050919050565b6129ae83612979565b6129c26129ba8261299b565b84845461291d565b825550505050565b600090565b6129d76129ca565b6129e28184846129a5565b505050565b5b81811015612a06576129fb6000826129cf565b6001810190506129e8565b5050565b601f821115612a4b57612a1c816128eb565b612a2584612900565b81016020851015612a34578190505b612a48612a4085612900565b8301826129e7565b50505b505050565b600082821c905092915050565b6000612a6e60001984600802612a50565b1980831691505092915050565b6000612a878383612a5d565b9150826002028217905092915050565b612aa082611d4b565b67ffffffffffffffff811115612ab957612ab8612231565b5b612ac3825461248e565b612ace828285612a0a565b600060209050601f831160018114612b015760008415612aef578287015190505b612af98582612a7b565b865550612b61565b601f198416612b0f866128eb565b60005b82811015612b3757848901518255600182019150602085019450602081019050612b12565b86831015612b545784890151612b50601f891682612a5d565b8355505b6001600288020188555050505b505050505050565b60006020820190508181036000830152612b838184611da2565b905092915050565b7f43616e6e6f74206164642063616e6469646174657320746f206163746976652060008201527f656c656374696f6e000000000000000000000000000000000000000000000000602082015250565b6000612be7602883611d56565b9150612bf282612b8b565b604082019050919050565b60006020820190508181036000830152612c1681612bda565b905091905056fea2646970667358221220550c3a548ff815080fb90d1ea268c3be6dc6d9adcdce21cb4bb4ce20828a9b7e64736f6c63430008130033",
  "linkReferences": {},
  "deployedLinkReferences": {}
}